:100000000C942A000C9447000C9447000C94470071
:100010000C9447000C9447000C9447000C94470044
:100020000C9447000C9447000C9447000C94470034
:100030000C9447000C9447000C9447000C94470024
:100040000C9447000C9447000C9447000C94470014
:100050000C94470011241FBECFE5D8E0DEBFCDBF12
:1000600012E0A0E6B0E0E6E3F1E402C005900D92F4
:10007000AE38B107D9F712E0AEE8B2E001C01D9288
:10008000A039B107E1F70E94201D0C9499200C942F
:100090000000EF92FF920F931F937B018C0120E0F1
:1000A00030E040E05FE40E94F50388238CF0C80153
:1000B000B70120E030E040E05FE40E94C1010E940F
:1000C000E3049B01AC01205030404040504806C042
:1000D000C801B7010E94E3049B01AC01B901CA0148
:1000E0001F910F91FF90EF900895A0E0B0E0EBE733
:1000F000F0E00C945920DC012B01FA019C91923024
:1001000008F439C1EB018881823008F433C194309E
:1001100069F4843009F02FC111969C91119789815F
:10012000981709F428C1ADE7B0E025C1843009F47F
:1001300021C18230A9F4923009F01DC19A01AD01AC
:1001400088E0EA010990AE01E90109929E0181501F
:10015000C1F7E201898111969C918923818308C1AD
:10016000923009F407C112962D903C901397EB0141
:100170008A819B811496AD90BD90CD90DC901797AD
:10018000EC80FD800E811F819101281B390BB90184
:1001900037FF04C066277727621B730B6032710537
:1001A0000CF061C0121613066CF537014801062EDB
:1001B00004C096948794779467940A94D2F721E0C8
:1001C00030E040E050E004C0220F331F441F551FB1
:1001D0006A95D2F721503040404050402E213F21B7
:1001E00040235123211531054105510521F021E01E
:1001F00030E040E050E079018A01E628F72808293C
:1002000019293CC0232BD1F1260E371E350146019A
:10021000062E04C096948794779467940A94D2F734
:1002200021E030E040E050E004C0220F331F441FC3
:10023000551F6A95D2F721503040404050402A2146
:100240003B214C215D21211531054105510521F04E
:1002500021E030E040E050E059016A01A628B728CB
:10026000C828D9280BC0821593052CF01C01AA249C
:10027000BB24650103C0EE24FF24870111969C91E5
:10028000D20111968C91981709F445C0992339F041
:10029000A80197012A193B094C095D0906C0A6016E
:1002A00095012E193F09400B510B57FD08C01182D3
:1002B0003382228224833583468357831DC081E0A5
:1002C00081833382228288279927DC01821B930B4A
:1002D000A40BB50B84839583A683B7830DC0220F2F
:1002E000331F441F551F24833583468357838281E0
:1002F000938101979383828324813581468157813D
:10030000DA01C9010197A109B1098F5F9F4FAF4F72
:10031000BF4328F30BC0918333822282EA0CFB1C7B
:100320000C1D1D1DE482F5820683178383E0808304
:10033000248135814681578157FF1AC0C901AA27F8
:1003400097FDA095BA2F81709070A070B0705695EF
:10035000479537952795822B932BA42BB52B848318
:100360009583A683B7838281938101969383828349
:10037000DF0101C0D201CD01CDB7DEB7E2E10C94BF
:100380007520A0E2B0E0E7ECF1E00C946520698311
:100390007A838B839C832D833E834F835887E9E048
:1003A000EE2EF12CEC0EFD1ECE010196B7010E943F
:1003B000D4068E010F5E1F4FCE010596B8010E9434
:1003C000D4068A8991E089278A8BC701B801AE01DA
:1003D000475E5F4F0E9475000E94FF05A096E6E011
:1003E0000C948120A0E2B0E0E8EFF1E00C946520ED
:1003F00069837A838B839C832D833E834F835887C5
:10040000F9E0EF2EF12CEC0EFD1ECE010196B701A6
:100410000E94D4068E010F5E1F4FCE010596B801D3
:100420000E94D406C701B801AE01475E5F4F0E942B
:1004300075000E94FF05A096E6E00C948120A0E2E2
:10044000B0E0E5E2F2E00C94592069837A838B8373
:100450009C832D833E834F835887CE010196BE0136
:10046000675F7F4F0E94D406CE010596BE016F5E86
:100470007F4F0E94D4069985923088F08989823016
:10048000C8F0943019F4823051F404C0843029F457
:10049000923081F48DE790E0C6C0923049F420E0BC
:1004A0009A858A89981321E02A87CE010996BBC0D4
:1004B000823049F420E09A858A89981321E02A8BBA
:1004C000CE014196B0C02D843E844F8458886D88FB
:1004D0007E888F88988CEE24FF248701AA24BB2471
:1004E000650140E050E060E070E0E0E0F0E0C10174
:1004F00081709070892BE9F0E60CF71C081D191D1E
:100500009A01AB012A0D3B1D4C1D5D1D80E090E062
:10051000A0E0B0E0E614F7040805190520F481E036
:1005200090E0A0E0B0E0BA01A901480F591F6A1F8E
:100530007B1FAA0CBB1CCC1CDD1C97FE08C081E0F5
:1005400090E0A0E0B0E0A82AB92ACA2ADB2A3196B6
:10055000E032F10549F0660C771C881C991C569412
:10056000479437942794C3CFFA85EA892B893C892D
:100570008B859C85280F391F2E5F3F4F17C0CA01FE
:1005800081709070892B61F016950795F794E79428
:1005900080E090E0A0E0B0E8E82AF92A0A2B1B2BC3
:1005A00076956795579547952F5F3F4F77FDE7CF36
:1005B0000CC0440F551F661F771F17FD4160EE0CDE
:1005C000FF1C001F111F21503040403090E05907A0
:1005D00090E0690790E4790760F32B8F3C8FDB0193
:1005E000CA018F779070A070B07080349105A1051A
:1005F000B10561F447FD0AC0E114F10401051105DC
:1006000029F0405C5F4F6F4F7F4F40781A8EFE1786
:1006100011F081E08A8F4D8F5E8F6F8F78A383E01A
:10062000898FCE0149960E94FF05A096E2E10C94C5
:100630007520A8E1B0E0EFE1F3E00C94612069835C
:100640007A838B839C832D833E834F835887B9E0C5
:10065000EB2EF12CEC0EFD1ECE010196B7010E948F
:10066000D4068E010F5E1F4FCE010596B8010E9481
:10067000D4062985223008F47EC03989323010F43E
:10068000B8017CC08A859A8989278A87243011F02D
:10069000223031F4231709F06EC06DE770E06EC0B0
:1006A000343039F41D861E861F86188A1C861B86E8
:1006B00004C0323021F484E08987B7015FC02B8504
:1006C0003C858B899C89281B390B3C872B87ED84C3
:1006D000FE840F851889AD88BE88CF88D88CEA142F
:1006E000FB040C051D0540F4EE0CFF1C001F111F40
:1006F000215030403C872B8720E030E040E050E044
:1007000080E090E0A0E0B0E460E070E0EA14FB0478
:100710000C051D0540F0282B392B4A2B5B2BEA18C2
:10072000FB080C091D09B695A79597958795EE0CC2
:10073000FF1C001F111F6F5F7F4F6F31710531F775
:10074000DA01C9018F779070A070B0708034910584
:10075000A105B10561F427FD0AC0E114F10401050A
:10076000110529F0205C3F4F4F4F5F4F20782D87B8
:100770003E874F87588BBE01675F7F4FCB010E943A
:10078000FF056896EAE00C947D20A8E1B0E0EBEC70
:10079000F3E00C94652069837A838B839C832D839B
:1007A0003E834F83588789E0E82EF12CEC0EFD1E26
:1007B000CE010196B7010E94D4068E010F5E1F4F35
:1007C000CE010596B8010E94D4068985823040F09A
:1007D0008989823028F0C701B8010E944C0701C006
:1007E0008FEF6896E6E00C948120A8E1B0E0EBEF93
:1007F000F3E00C94652069837A838B839C832D833B
:100800003E834F83588789E0E82EF12CEC0EFD1EC5
:10081000CE010196B7010E94D4068E010F5E1F4FD4
:10082000CE010596B8010E94D4068985823040F039
:100830008989823028F0C701B8010E944C0701C0A5
:100840008FEF6896E6E00C948120A8E1B0E0EBE23F
:10085000F4E00C94652069837A838B839C832D83D9
:100860003E834F83588789E0E82EF12CEC0EFD1E65
:10087000CE010196B7010E94D4068E010F5E1F4F74
:10088000CE010596B8010E94D4068985823040F0D9
:100890008989823028F0C701B8010E944C0701C045
:1008A00081E06896E6E00C948120A8E1B0E0EBE5F9
:1008B000F4E00C94652069837A838B839C832D8379
:1008C0003E834F83588789E0E82EF12CEC0EFD1E05
:1008D000CE010196B7010E94D4068E010F5E1F4F14
:1008E000CE010596B8010E94D4068985823040F079
:1008F0008989823028F0C701B8010E944C0701C0E5
:1009000081E06896E6E00C948120A8E0B0E0EBE896
:10091000F4E00C9462209B01AC0183E08983DA014E
:10092000C9018827B7FD83959927AA27BB27B82E29
:10093000211531054105510519F482E089833AC03A
:100940008823A9F0203080E0380780E0480780E85D
:10095000580729F460E070E080E09FEC30C0EE249E
:10096000FF248701E21AF30A040B150B02C0790178
:100970008A018EE1C82ED12CDC82CB82ED82FE82F0
:100980000F831887C801B7010E94B0050197181698
:10099000190684F4082E04C0EE0CFF1C001F111F62
:1009A0000A94D2F7ED82FE820F831887C81AD90AFB
:1009B000DC82CB82BA82CE0101960E94FF05289686
:1009C000E9E00C947E20ACE0B0E0E9EEF4E00C94B9
:1009D000692069837A838B839C83CE010196BE0153
:1009E0006B5F7F4F0E94D4068D81823061F182302F
:1009F00050F1843021F48E81882351F12EC02F8153
:100A0000388537FD20C06E812F3131051CF06623FB
:100A1000F9F023C08EE190E0821B930B29853A8583
:100A20004B855C8504C056954795379527958A95E3
:100A3000D2F76623B1F050954095309521953F4F00
:100A40004F4F5F4F0EC020E030E040E050E009C063
:100A50002FEF3FEF4FEF5FE704C020E030E040E0D2
:100A600050E8B901CA012C96E2E00C948520A8E078
:100A7000B0E0EDE3F5E00C9461207B018C016115A1
:100A800071058105910519F482E0898360C083E0D6
:100A900089838EE1C82ED12CDC82CB82ED82FE824E
:100AA0000F831887C801B7010E94B005FC01319778
:100AB000F7FF3BC0222733272E1B3F0B570168014E
:100AC000022E04C0D694C794B794A7940A94D2F780
:100AD00040E050E060E070E081E090E0A0E0B0E055
:100AE00004C0880F991FAA1FBB1F2A95D2F7019730
:100AF000A109B1098E219F21A023B1230097A1054F
:100B0000B10521F041E050E060E070E04A295B2946
:100B10006C297D294D835E836F8378878EE190E019
:100B20008E1B9F0B9C838B8312C0309781F00E2EFF
:100B300004C0EE0CFF1C001F111F0A94D2F7ED82B7
:100B4000FE820F831887CE1ADF0ADC82CB821A82DC
:100B5000CE0101960E94FF052896EAE00C947D20C4
:100B6000EF92FF920F931F937B018C0180E0E816B8
:100B700080E0F80681E0080780E0180788F48FEF2E
:100B8000E816F1040105110531F028F088E090E045
:100B9000A0E0B0E017C080E090E0A0E0B0E012C0BC
:100BA00080E0E81680E0F80680E0080781E018079A
:100BB00028F088E190E0A0E0B0E004C080E190E09F
:100BC000A0E0B0E020E230E040E050E0281B390B2C
:100BD0004A0B5B0B04C016950795F794E7948A952A
:100BE000D2F7F701EB57FF4F8081281B31094109EC
:100BF0005109C9011F910F91FF90EF900895DF9265
:100C0000EF92FF920F931F93FC01E480F580068121
:100C10001781D1808081823048F480E090E0A0E1AB
:100C2000B0E0E82AF92A0A2B1B2BA5C0843009F46E
:100C30009FC0823021F4EE24FF24870105C0E11417
:100C4000F1040105110519F4E0E0F0E096C06281BD
:100C500073819FEF623879070CF05BC022E83FEFA9
:100C6000261B370B2A3131052CF020E030E040E024
:100C700050E02AC0B801A701022E04C076956795FE
:100C8000579547950A94D2F781E090E0A0E0B0E054
:100C900004C0880F991FAA1FBB1F2A95D2F701977E
:100CA000A109B1098E219F21A023B1230097A1059D
:100CB000B10521F081E090E0A0E0B0E09A01AB0145
:100CC000282B392B4A2B5B2BDA01C9018F779070C7
:100CD000A070B07080349105A105B10539F427FFEB
:100CE00009C0205C3F4F4F4F5F4F04C0215C3F4F16
:100CF0004F4F5F4FE0E0F0E02030A0E03A07A0E087
:100D00004A07A0E45A0710F0E1E0F0E079018A0117
:100D100027C06038710564F5FB01E158FF4FD80129
:100D2000C7018F779070A070B07080349105A105D5
:100D3000B10539F4E7FE0DC080E490E0A0E0B0E03A
:100D400004C08FE390E0A0E0B0E0E80EF91E0A1FB7
:100D50001B1F17FF05C016950795F794E79431966A
:100D600087E016950795F794E7948A95D1F705C023
:100D7000EE24FF248701EFEFF0E06E2F67956627E2
:100D80006795902F9F77D794DD24D7948E2F8695E3
:100D9000492F462B582F5D29B701CA011F910F918A
:100DA000FF90EF90DF900895FC01DB0140815181BD
:100DB0002281622F6F7770E0221F2227221F9381EA
:100DC000892F880F822B282F30E0991F9927991F90
:100DD00011969C93119721153105A9F541155105DF
:100DE0006105710511F482E037C082E89FEF139628
:100DF0009C938E9312979A01AB0167E0220F331FE9
:100E0000441F551F6A95D1F783E08C930DC0220FC4
:100E1000331F441F551F12968D919C911397019774
:100E200013969C938E931297203080E0380780E0D1
:100E3000480780E4580758F314962D933D934D933B
:100E40005C93179708952F3F310579F441155105AB
:100E50006105710519F484E08C93089564FF03C063
:100E600081E08C9312C01C9210C02F573040139613
:100E70003C932E93129783E08C9387E0440F551F89
:100E8000661F771F8A95D1F7706414964D935D9312
:100E90006D937C93179708951F93DC01FB019C9140
:100EA000923008F447C08081823008F443C0943007
:100EB00051F411961C91843099F58181682F70E06E
:100EC000611B71093FC0843021F0923031F48230CF
:100ED000B9F18181882389F12DC011961C91119758
:100EE0008230F1F081811817D9F412962D913C913E
:100EF0001397828193818217930794F028173907FB
:100F0000BCF014968D919D910D90BC91A02D2481E3
:100F1000358146815781281739074A075B0718F43E
:100F2000112341F00AC082179307A407B50740F4C4
:100F3000112319F061E070E005C06FEF7FEF02C090
:100F400060E070E0CB011F910895DF93CF9300D054
:100F5000CDB7DEB79A838983E0E4F0E089819A8196
:100F6000892F99278083E9E2F0E089818083EAE292
:100F7000F0E088E18083E0E4F0E086E880830F9091
:100F80000F90CF91DF910895DF93CF930F92CDB75C
:100F9000DEB78983EBE2F0E08081882F90E08072F9
:100FA00090700097B9F3ECE2F0E0898180830F90B4
:100FB000CF91DF910895DF93CF93CDB7DEB7EBE20A
:100FC000F0E080818823DCF7ECE2F0E08081CF91D3
:100FD000DF910895DF93CF9300D0CDB7DEB79A832A
:100FE00089830BC0E981FA81208189819A810196E8
:100FF0009A838983822F0E94C407E981FA818081C4
:10100000882381F70F900F90CF91DF910895DF93A0
:10101000CF9300D000D00F92CDB7DEB79C838B83E7
:101020006D831A8216C00E94DB07898389818A300A
:10103000D1F089818D30B9F08A81282F30E08B8101
:101040009C81FC01E20FF31F898180838A818F5F7D
:101050008A838A81282F30E08D81882F90E0019744
:101060002817390704F38A81282F30E08B819C816F
:10107000FC01E20FF31F10820F900F900F900F9062
:101080000F90CF91DF910895DF93CF93CDB7DEB767
:101090002A970FB6F894DEBF0FBECDBF8B836C834B
:1010A0008B819AE0692F0E941020892F8A838B817F
:1010B0009AE0692F0E94102089838C81282F30E0CC
:1010C0003A87298789859A858130910539F0298564
:1010D0003A852230310509F471C0E4C08981282F96
:1010E00030E038872F838F8198858230910551F1C8
:1010F0002F8138852330310534F48F8198858130F4
:10110000910561F0CFC02F8138852330310571F111
:101110008F81988584309105E9F1C4C0AAE3B0E0DD
:10112000EAE3F0E08081482F8A81282F30E081E0D7
:1011300090E0022E02C0880F991F0A94E2F7842BD8
:101140008C93B0C0A7E3B0E0E7E3F0E08081482FE4
:101150008A81282F30E081E090E0022E02C0880FC3
:10116000991F0A94E2F7842B8C939CC0A4E3B0E00F
:10117000E4E3F0E08081482F8A81282F30E081E08D
:1011800090E0022E02C0880F991F0A94E2F7842B88
:101190008C9388C0A1E3B0E0E1E3F0E08081482FC8
:1011A0008A81282F30E081E090E0022E02C0880F73
:1011B000991F0A94E2F7842B8C9374C08981282F9D
:1011C00030E03E832D838D819E818230910561F1D7
:1011D0002D813E812330310534F48D819E81813013
:1011E000910569F05FC02D813E812330310589F181
:1011F0008D819E818430910509F440C053C0AAE3DB
:10120000B0E0EAE3F0E08081482F8A81282F30E0C7
:1012100081E090E0022E02C0880F991F0A94E2F745
:10122000809584238C933EC0A7E3B0E0E7E3F0E031
:101230008081482F8A81282F30E081E090E0022EC3
:1012400002C0880F991F0A94E2F7809584238C933B
:1012500029C0A4E3B0E0E4E3F0E08081482F8A8174
:10126000282F30E081E090E0022E02C0880F991F05
:101270000A94E2F7809584238C9314C0A1E3B0E034
:10128000E1E3F0E08081482F8A81282F30E081E07F
:1012900090E0022E02C0880F991F0A94E2F7809511
:1012A00084238C932A960FB6F894DEBF0FBECDBF71
:1012B000CF91DF910895DF93CF93CDB7DEB72A9713
:1012C0000FB6F894DEBF0FBECDBF8B836C838B81CE
:1012D0009AE0692F0E941020892F8A838B819AE0DF
:1012E000692F0E94102089838C81282F30E03A8753
:1012F000298789859A858130910539F029853A8534
:101300002230310509F471C0E4C08981282F30E012
:1013100038872F838F8198858230910551F12F81F5
:1013200038852330310534F48F81988581309105DB
:1013300061F0CFC02F8138852330310571F18F8165
:10134000988584309105E9F1C4C0ABE3B0E0EBE3EC
:10135000F0E08081482F8A81282F30E081E090E002
:10136000022E02C0880F991F0A94E2F7842B8C93F7
:10137000B0C0A8E3B0E0E8E3F0E08081482F8A81C4
:10138000282F30E081E090E0022E02C0880F991FE4
:101390000A94E2F7842B8C939CC0A5E3B0E0E5E3CC
:1013A000F0E08081482F8A81282F30E081E090E0B2
:1013B000022E02C0880F991F0A94E2F7842B8C93A7
:1013C00088C0A2E3B0E0E2E3F0E08081482F8A81A8
:1013D000282F30E081E090E0022E02C0880F991F94
:1013E0000A94E2F7842B8C9374C08981282F30E013
:1013F0003E832D838D819E818230910561F12D8107
:101400003E812330310534F48D819E8181309105F8
:1014100069F05FC02D813E812330310589F18D81D6
:101420009E818430910509F440C053C0ABE3B0E025
:10143000EBE3F0E08081482F8A81282F30E081E0C3
:1014400090E0022E02C0880F991F0A94E2F780955F
:1014500084238C933EC0A8E3B0E0E8E3F0E0808111
:10146000482F8A81282F30E081E090E0022E02C0D0
:10147000880F991F0A94E2F7809584238C9329C0E2
:10148000A5E3B0E0E5E3F0E08081482F8A81282FD2
:1014900030E081E090E0022E02C0880F991F0A948C
:1014A000E2F7809584238C9314C0A2E3B0E0E2E3DA
:1014B000F0E08081482F8A81282F30E081E090E0A1
:1014C000022E02C0880F991F0A94E2F780958423A8
:1014D0008C932A960FB6F894DEBF0FBECDBFCF9186
:1014E000DF910895DF93CF9300D000D00F92CDB756
:1014F000DEB78B838B819AE0692F0E941020892FA1
:101500008A838B819AE0692F0E94102089838981C8
:10151000282F30E03D832C838C819D818230910582
:1015200051F12C813D812330310534F48C819D8132
:101530008130910561F05AC02C813D812330310505
:1015400071F18C819D8184309105E9F14FC0ABE34D
:10155000B0E0EBE3F0E08081482F8A81282F30E073
:1015600081E090E0022E02C0880F991F0A94E2F7F2
:1015700084278C933BC0A8E3B0E0E8E3F0E08081EF
:10158000482F8A81282F30E081E090E0022E02C0AF
:10159000880F991F0A94E2F784278C9327C0A5E34C
:1015A000B0E0E5E3F0E08081482F8A81282F30E029
:1015B00081E090E0022E02C0880F991F0A94E2F7A2
:1015C00084278C9313C0A2E3B0E0E2E3F0E08081D3
:1015D000482F8A81282F30E081E090E0022E02C05F
:1015E000880F991F0A94E2F784278C930F900F902D
:1015F0000F900F900F90CF91DF910895DF93CF93CD
:1016000000D000D000D0CDB7DEB78C838C819AE0BB
:10161000692F0E941020892F8B838C819AE0692F7B
:101620000E9410208A8319828A81282F30E03E830D
:101630002D834D815E814230510541F18D819E8126
:101640008330910534F42D813E812130310561F0E4
:1016500052C04D815E814330510551F18D819E8193
:1016600084309105B9F147C0E9E3F0E08081282F8B
:1016700030E08B81882F90E0A90102C055954795F5
:101680008A95E2F7CA018170898335C0E6E3F0E00C
:101690008081282F30E08B81882F90E0A90102C043
:1016A000559547958A95E2F7CA018170898323C0D1
:1016B000E3E3F0E08081282F30E08B81882F90E0F9
:1016C000A90102C0559547958A95E2F7CA01817034
:1016D000898311C0E0E3F0E08081282F30E08B8126
:1016E000882F90E0A90102C0559547958A95E2F7A9
:1016F000CA0181708983898126960FB6F894DEBF6E
:101700000FBECDBFCF91DF910895DF93CF93CDB7BB
:10171000DEB72A970FB6F894DEBF0FBECDBF8B831E
:101720006C838B819AE0692F0E941020892F8A8315
:101730008B819AE0692F0E94102089838C81282F49
:1017400030E03A87298789859A858130910539F07B
:1017500029853A852230310509F471C0E4C08981B8
:10176000282F30E038872F838F819885823091052C
:1017700051F12F8138852330310534F48F819885DC
:101780008130910561F0CFC02F813885233031053C
:1017900071F18F81988584309105E9F1C4C0ABE384
:1017A000B0E0EBE3F0E08081482F8A81282F30E021
:1017B00081E090E0022E02C0880F991F0A94E2F7A0
:1017C000842B8C93B0C0A8E3B0E0E8E3F0E0808124
:1017D000482F8A81282F30E081E090E0022E02C05D
:1017E000880F991F0A94E2F7842B8C939CC0A5E381
:1017F000B0E0E5E3F0E08081482F8A81282F30E0D7
:1018000081E090E0022E02C0880F991F0A94E2F74F
:10181000842B8C9388C0A2E3B0E0E2E3F0E0808107
:10182000482F8A81282F30E081E090E0022E02C00C
:10183000880F991F0A94E2F7842B8C9374C08981D6
:10184000282F30E03E832D838D819E81823091054B
:1018500061F12D813E812330310534F48D819E81EB
:101860008130910569F05FC02D813E8123303105C3
:1018700089F18D819E818430910509F440C053C067
:10188000ABE3B0E0EBE3F0E08081482F8A81282FC2
:1018900030E081E090E0022E02C0880F991F0A9488
:1018A000E2F7809584238C933EC0A8E3B0E0E8E3A0
:1018B000F0E08081482F8A81282F30E081E090E09D
:1018C000022E02C0880F991F0A94E2F780958423A4
:1018D0008C9329C0A5E3B0E0E5E3F0E08081482FD8
:1018E0008A81282F30E081E090E0022E02C0880F2C
:1018F000991F0A94E2F7809584238C9314C0A2E385
:10190000B0E0E2E3F0E08081482F8A81282F30E0C8
:1019100081E090E0022E02C0880F991F0A94E2F73E
:10192000809584238C932A960FB6F894DEBF0FBE61
:10193000CDBFCF91DF910895DF93CF93CDB7DEB7C1
:1019400028970FB6F894DEBF0FBECDBF89836A8398
:101950008A81282F30E038872F838F8198858130C6
:10196000910531F02F81388522303105A9F163C00E
:101970008981282F30E03E832D838D819E818230A6
:101980009105D9F02D813E812330310534F48D81CC
:101990009E818130910561F04EC02D813E812330C2
:1019A000310581F08D819E818430910581F043C0A5
:1019B000EAE3F0E08FEF80833EC0E7E3F0E08FEFF3
:1019C000808339C0E4E3F0E08FEF808334C0E1E34B
:1019D000F0E08FEF80832FC08981282F30E03C8397
:1019E0002B838B819C8182309105D1F02B813C81AE
:1019F0002330310534F48B819C818130910561F075
:101A00001AC02B813C812330310571F08B819C8180
:101A10008430910569F00FC0EAE3F0E010820BC05A
:101A2000E7E3F0E0108207C0E4E3F0E0108203C0D7
:101A3000E1E3F0E0108228960FB6F894DEBF0FBE07
:101A4000CDBFCF91DF910895DF93CF9300D000D029
:101A5000CDB7DEB789836A838981282F30E03C8344
:101A60002B838B819C8182309105D9F02B813C8125
:101A70002330310534F48B819C818130910561F0F4
:101A80001EC02B813C812330310581F08B819C81EC
:101A90008430910581F013C0EBE3F0E08A8180830C
:101AA0000EC0E8E3F0E08A81808309C0E5E3F0E05E
:101AB0008A81808304C0E2E3F0E08A8180830F9012
:101AC0000F900F900F90CF91DF910895DF93CF93F8
:101AD000CDB7DEB7A7E2B0E0E7E2F0E08081806456
:101AE0008C93A7E2B0E0E7E2F0E080818F778C93FF
:101AF000A7E2B0E0E7E2F0E080818F7D8C93A6E280
:101B0000B0E0E6E2F0E0808181608C93A6E2B0E094
:101B1000E6E2F0E0808182608C93A6E2B0E0E6E24B
:101B2000F0E0808184608C93A6E2B0E0E6E2F0E031
:101B3000808180628C93A6E2B0E0E6E2F0E08081F2
:101B400080688C93CF91DF910895DF93CF930F92AC
:101B5000CDB7DEB78983A7E2B0E0E7E2F0E08081AD
:101B6000982F987F89818770892B8C93A6E2B0E0AB
:101B7000E6E2F0E0808180648C93E6E2F0E0808130
:101B800082958F70882F90E0817090700097A9F3F4
:101B9000E4E2F0E0808191810F90CF91DF91089590
:101BA000DF93CF93CDB7DEB72E970FB6F894DEBF95
:101BB0000FBECDBF82E261E00E94440883E261E093
:101BC0000E94440884E261E00E94440885E261E0EA
:101BD0000E94440885E161E00E94440886E161E0DA
:101BE0000E94440886E162E00E945B0987E161E0AF
:101BF0000E94440880E090E0AAE7B4E48B879C87C9
:101C0000AD87BE876B857C858D859E8520E030E025
:101C10004AEF54E40E941F02DC01CB018F839887B6
:101C2000A987BA876F81788589859A8520E030E019
:101C300040E85FE30E94250488232CF481E090E0D3
:101C40009E838D833FC06F81788589859A8520E04A
:101C50003FEF4FE757E40E94C50318164CF56B851C
:101C60007C858D859E8520E030E040E251E40E9435
:101C70001F02DC01CB01BC01CD010E944900DC0147
:101C8000CB019E838D830FC088EC90E09C838B8377
:101C90008B819C810197F1F79C838B838D819E8141
:101CA00001979E838D838D819E81009769F714C073
:101CB0006F81788589859A850E944900DC01CB0176
:101CC0009E838D838D819E819A83898389819A8168
:101CD0000197F1F79A83898383E30E94D91082E305
:101CE0000E94D91088E20E94D9108CE00E94D9107D
:101CF00081E00E94D91082E00E94D9102E960FB682
:101D0000F894DEBF0FBECDBFCF91DF910895DF9372
:101D1000CF93CDB7DEB7E9970FB6F894DEBF0FBE0D
:101D2000CDBF89AF85E161E00E945B09A5E3B0E02A
:101D300089AD982F907FE5E3F0E080818F70892B4B
:101D40008C9387E161E00E945B0980E090E0A0E86D
:101D5000BFE38DAB9EABAFABB8AF6DA97EA98FA92A
:101D600098AD20E030E04AEF54E40E941F02DC010D
:101D7000CB0189AB9AABABABBCAB69A97AA98BA9F8
:101D80009CA920E030E040E85FE30E94250488231E
:101D90002CF481E090E098AB8FA73FC069A97AA9A5
:101DA0008BA99CA920E03FEF4FE757E40E94C503B1
:101DB00018164CF56DA97EA98FA998AD20E030E0EA
:101DC00040E251E40E941F02DC01CB01BC01CD01C5
:101DD0000E944900DC01CB0198AB8FA70FC088ECB3
:101DE00090E09EA78DA78DA59EA50197F1F79EA7D0
:101DF0008DA78FA598A9019798AB8FA78FA598A9B4
:101E0000009769F714C069A97AA98BA99CA90E94B7
:101E10004900DC01CB0198AB8FA78FA598A99CA79F
:101E20008BA78BA59CA50197F1F79CA78BA787E1B2
:101E300062E00E945B0980E090E0A0EAB0E48FA33A
:101E400098A7A9A7BAA76FA178A589A59AA520E008
:101E500030E04AEF54E40E941F02DC01CB018BA367
:101E60009CA3ADA3BEA36BA17CA18DA19EA120E0EC
:101E700030E040E85FE30E94250488232CF481E0F1
:101E800090E09AA389A33FC06BA17CA18DA19EA1E4
:101E900020E03FEF4FE757E40E94C50318164CF5CA
:101EA0006FA178A589A59AA520E030E040E251E431
:101EB0000E941F02DC01CB01BC01CD010E94490040
:101EC000DC01CB019AA389A30FC088EC90E098A312
:101ED0008F8F8F8D98A10197F1F798A38F8F89A18C
:101EE0009AA101979AA389A389A19AA1009769F75A
:101EF00014C06BA17CA18DA19EA10E944900DC01B0
:101F0000CB019AA389A389A19AA19E8F8D8F8D8DD4
:101F10009E8D0197F1F79E8F8D8FA5E3B0E089AD7F
:101F2000882F90E082959295907F9827807F9827C0
:101F3000982FE5E3F0E080818F70892B8C9387E107
:101F400061E00E945B0980E090E0A0E8BFE3898F38
:101F50009A8FAB8FBC8F698D7A8D8B8D9C8D20E095
:101F600030E04AEF54E40E941F02DC01CB018D8B6C
:101F70009E8BAF8BB88F6D897E898F89988D20E07D
:101F800030E040E85FE30E94250488232CF481E0E0
:101F900090E09C8B8B8B3FC06D897E898F89988D5B
:101FA00020E03FEF4FE757E40E94C50318164CF5B9
:101FB000698D7A8D8B8D9C8D20E030E040E251E47C
:101FC0000E941F02DC01CB01BC01CD010E9449002F
:101FD000DC01CB019C8B8B8B0FC088EC90E09A8B43
:101FE000898B89899A890197F1F79A8B898B8B89DB
:101FF0009C8901979C8B8B8B8B899C89009769F7B7
:1020000014C06D897E898F89988D0E944900DC01FA
:10201000CB019C8B8B8B8B899C89988B8F878F8531
:1020200098890197F1F7988B8F8787E162E00E948A
:102030005B0980E090E0A0EAB0E48B879C87AD87E5
:10204000BE876B857C858D859E8520E030E04AEFDC
:1020500054E40E941F02DC01CB018F839887A9877B
:10206000BA876F81788589859A8520E030E040E8DD
:102070005FE30E94250488232CF481E090E09E8396
:102080008D833FC06F81788589859A8520E03FEFF9
:102090004FE757E40E94C50318164CF56B857C8505
:1020A0008D859E8520E030E040E251E40E941F02D1
:1020B000DC01CB01BC01CD010E944900DC01CB0158
:1020C0009E838D830FC088EC90E09C838B838B81F3
:1020D0009C810197F1F79C838B838D819E81019771
:1020E0009E838D838D819E81009769F714C06F81D7
:1020F000788589859A850E944900DC01CB019E8301
:102100008D838D819E819A83898389819A810197AC
:10211000F1F79A838983E9960FB6F894DEBF0FBE74
:10212000CDBFCF91DF910895DF93CF93CDB7DEB7C9
:1021300028970FB6F894DEBF0FBECDBF9D838C836A
:102140006E834F8328871B828E81882F90E0880FB3
:10215000991F880F991F880F991F8B838B81805C33
:102160000E94D9101A8219820FC029813A818C816C
:102170009D81FC01E20FF31F80810E94870E8981FF
:102180009A8101969A83898389819A818830910501
:1021900064F38F8168850E944D148E810E94870EA2
:1021A00028960FB6F894DEBF0FBECDBFCF91DF915A
:1021B0000895DF93CF93CDB7DEB7E9970FB6F894C4
:1021C000DEBF0FBECDBF89AF85E162E00E945B0933
:1021D000A5E3B0E089AD982F907FE5E3F0E0808142
:1021E0008F70892B8C9387E161E00E945B0980E00E
:1021F00090E0A0E8BFE38DAB9EABAFABB8AF6DA9ED
:102200007EA98FA998AD20E030E04AEF54E40E9407
:102210001F02DC01CB0189AB9AABABABBCAB69A9AC
:102220007AA98BA99CA920E030E040E85FE30E94F6
:10223000250488232CF481E090E098AB8FA73FC061
:1022400069A97AA98BA99CA920E03FEF4FE757E441
:102250000E94C50318164CF56DA97EA98FA998ADEB
:1022600020E030E040E251E40E941F02DC01CB019B
:10227000BC01CD010E944900DC01CB0198AB8FA7C6
:102280000FC088EC90E09EA78DA78DA59EA5019715
:10229000F1F79EA78DA78FA598A9019798AB8FA757
:1022A0008FA598A9009769F714C069A97AA98BA985
:1022B0009CA90E944900DC01CB0198AB8FA78FA598
:1022C00098A99CA78BA78BA59CA50197F1F79CA724
:1022D0008BA787E162E00E945B0980E090E0A0EAC2
:1022E000B0E48FA398A7A9A7BAA76FA178A589A5DD
:1022F0009AA520E030E04AEF54E40E941F02DC017E
:10230000CB018BA39CA3ADA3BEA36BA17CA18DA18C
:102310009EA120E030E040E85FE30E94250488238E
:102320002CF481E090E09AA389A33FC06BA17CA12B
:102330008DA19EA120E03FEF4FE757E40E94C50327
:1023400018164CF56FA178A589A59AA520E030E074
:1023500040E251E40E941F02DC01CB01BC01CD012F
:102360000E944900DC01CB019AA389A30FC088EC2D
:1023700090E098A38F8F8F8D98A10197F1F798A384
:102380008F8F89A19AA101979AA389A389A19AA164
:10239000009769F714C06BA17CA18DA19EA10E943A
:1023A0004900DC01CB019AA389A389A19AA19E8F40
:1023B0008D8F8D8D9E8D0197F1F79E8F8D8FA5E36B
:1023C000B0E089AD882F90E082959295907F982714
:1023D000807F9827982FE5E3F0E080818F70892B2C
:1023E0008C9387E161E00E945B0980E090E0A0E8C7
:1023F000BFE3898F9A8FAB8FBC8F698D7A8D8B8D60
:102400009C8D20E030E04AEF54E40E941F02DC0182
:10241000CB018D8B9E8BAF8BB88F6D897E898F8919
:10242000988D20E030E040E85FE30E942504882397
:102430002CF481E090E09C8B8B8B3FC06D897E8972
:102440008F89988D20E03FEF4FE757E40E94C50346
:1024500018164CF5698D7A8D8B8D9C8D20E030E0BF
:1024600040E251E40E941F02DC01CB01BC01CD011E
:102470000E944900DC01CB019C8B8B8B0FC088EC48
:1024800090E09A8B898B89899A890197F1F79A8BC9
:10249000898B8B899C8901979C8B8B8B8B899C89E1
:1024A000009769F714C06D897E898F89988D0E9485
:1024B0004900DC01CB019C8B8B8B8B899C89988B91
:1024C0008F878F8598890197F1F7988B8F8787E1A0
:1024D00062E00E945B0980E090E0A0EAB0E48B87B4
:1024E0009C87AD87BE876B857C858D859E8520E02A
:1024F00030E04AEF54E40E941F02DC01CB018F83DD
:102500009887A987BA876F81788589859A8520E021
:1025100030E040E85FE30E94250488232CF481E04A
:1025200090E09E838D833FC06F81788589859A85F1
:1025300020E03FEF4FE757E40E94C50318164CF523
:102540006B857C858D859E8520E030E040E251E4FE
:102550000E941F02DC01CB01BC01CD010E94490099
:10256000DC01CB019E838D830FC088EC90E09C83BF
:102570008B838B819C810197F1F79C838B838D8169
:102580009E8101979E838D838D819E81009769F73F
:1025900014C06F81788589859A850E944900DC0185
:1025A000CB019E838D838D819E819A8389838981CE
:1025B0009A810197F1F79A838983E9960FB6F89487
:1025C000DEBF0FBECDBFCF91DF910895DF93CF93D4
:1025D00000D00F92CDB7DEB79B838A8319820EC0DD
:1025E0008981282F30E08A819B81FC01E20FF31F53
:1025F00080810E94870E89818F5F89838981282F3E
:1026000030E08A819B81FC01E20FF31F80818823E7
:1026100039F70F900F900F90CF91DF910895DF93CE
:10262000CF93CDB7DEB760970FB6F894DEBF0FBE7D
:10263000CDBF6D877E878F87988B8AE0FE013396AA
:10264000DF01982F1D929A95E9F71A8219828D85DC
:102650009E85AF85B8890097A105B10521F480E377
:102660000E94870E6AC08D859E85AF85B889BB2381
:102670000CF043C08DE20E94870E8D859E85AF854C
:10268000B889B095A095909581959F4FAF4FBF4F5A
:102690008D879E87AF87B88B30C08D859E85AF852F
:1026A000B8892AE030E040E050E0BC01CD010E9452
:1026B0001C20DC01CB0189838A81282F332727FD49
:1026C0003095CE010396FC01E20FF31F89818083D0
:1026D0008A818F5F8A838D859E85AF85B8892AE040
:1026E00030E040E050E0BC01CD010E941C20DA0146
:1026F000C9018D879E87AF87B88B8D859E85AF85F5
:10270000B8890097A105B10541F68A8181508A8375
:1027100011C08A81282F332727FD3095CE010396DB
:10272000FC01E20FF31F8081805D0E94870E8A8189
:1027300081508A838A81882364F760960FB6F89463
:10274000DEBF0FBECDBFCF91DF910895DF93CF9352
:10275000CDB7DEB761970FB6F894DEBF0FBECDBF21
:102760006E877F87888B998B82E089836E857F85D2
:102770008889998920E030E040E050E00E942504FB
:10278000882364F48DE20E94870E8E859F85A88938
:10279000B989B0588E879F87A88BB98B6E857F8546
:1027A000888999890E94E304DC01CB018A879B8791
:1027B000AC87BD876A857B858C859D850E94850455
:1027C0009B01AC016E857F85888999890E94C10132
:1027D000DC01CB018E839F83A887B9878A859B857F
:1027E000AC85BD85BC01CD010E940F138EE20E9415
:1027F000870E8981882F90E09C01220F331FC90129
:10280000880F991F880F991F820F931FAA2797FD82
:10281000A095BA2FBC01CD010E9485049B01AC019B
:102820006E817F81888599850E941F02DC01CB0122
:102830008E839F83A887B9876E817F8188859985DC
:1028400020E030E040E05FE30E94F201DC01CB01D8
:10285000BC01CD010E94E304DC01CB018A839B8390
:10286000AC83BD838A819B81AC81BD81BC01CD01DC
:102870000E940F1361960FB6F894DEBF0FBECDBF56
:10288000CF91DF910895DF93CF93CDB7DEB781E08D
:102890000E94D910CF91DF910895DF93CF9300D09C
:1028A00000D0CDB7DEB78B836C8380E8898380EC62
:1028B0008A838B81282F30E0CE010196FC01E20F44
:1028C000F31F90818C81890F0E94D9100F900F9077
:1028D0000F900F90CF91DF910895DF93CF93CDB7F5
:1028E000DEB785E00E94D910CF91DF910895DF9384
:1028F000CF93CDB7DEB787E00E94D910CF91DF919B
:102900000895DF93CF93CDB7DEB70E94660DCF91C8
:10291000DF910895EF92FF920F931F93DF93CF9370
:10292000CDB7DEB72E970FB6F894DEBF0FBECDBF82
:102930009A87898789859A85CC01A0E0B0E0BC019F
:10294000CD010E943705DC01CB01BC01CD0120E0A7
:1029500030E040E854E40E941903DC01CB01BC01E3
:10296000CD0120E030E040EA50E40E941F02DC018B
:10297000CB018D839E83AF83B8876D817E818F81EC
:10298000988520E030E44CE156E40E941F02DC010F
:10299000CB017C018D0160E070E080EA90E42D8144
:1029A0003E814F8158850E94C101DC01CB019C0111
:1029B000AD01C801B7010E941903DC01CB01898375
:1029C0009A83AB83BC8369817A818B819C8120E06F
:1029D00030E543EC56E40E94550418164CF080E0B4
:1029E00090E0A0E0B0E08B879C87AD87BE8739C0C0
:1029F00069817A818B819C8120E030E543E457E452
:102A00000E94F50388234CF080E090E0A4EBB2E450
:102A10008B879C87AD87BE8724C069817A818B8133
:102A20009C8120E030E543EC56E40E94C101DC01CA
:102A3000CB01BC01CD0120E030E044EB52E40E9428
:102A40001F02DC01CB01BC01CD0120E030E543ECED
:102A500056E40E941903DC01CB018B879C87AD876C
:102A6000BE878B859C85AD85BE85BC01CD012E962C
:102A70000FB6F894DEBF0FBECDBFCF91DF911F918F
:102A80000F91FF90EF9008950F931F93DF93CF93D3
:102A9000CDB7DEB7C955D0400FB6F894DEBF0FBE34
:102AA000CDBFFE01EB5AFF4F8083FE01EA5AFF4F74
:102AB0006083FE01E95AFF4F4083FE01E85AFF4F51
:102AC0002083FE01E75AFF4F0083FE01EB5AFF4FC0
:102AD0008081883508F4E2C0FE01EB5AFF4F808107
:102AE0008B3508F0DBC0FE01EA5AFF4F80818B3541
:102AF00008F0D4C0FE01E95AFF4F8081863408F403
:102B0000CDC0FE01E95AFF4F80818B3508F0C6C069
:102B1000FE01E85AFF4F80818A3509F0BFC0FE01EF
:102B2000E75AFF4F8081882309F0B8C00E94431CF8
:102B3000FE01EF5AFF4F80E090E0AAE7B4E4808303
:102B40009183A283B3838E01035B1F4FFE01EF5A73
:102B5000FF4F608171818281938120E030E04AEFF4
:102B600054E40E941F02DC01CB01F80180839183B1
:102B7000A283B383FE01E35BFF4F60817181828199
:102B8000938120E030E040E85FE30E942504882341
:102B900044F4FE01E55BFF4F81E090E09183808388
:102BA00064C0FE01E35BFF4F60817181828193818C
:102BB00020E03FEF4FE757E40E94C50318160CF0E2
:102BC00043C0FE01EF5AFF4F608171818281938182
:102BD00020E030E040E251E40E941F02DC01CB0122
:102BE0008E01055B1F4FBC01CD010E944900DC0135
:102BF000CB01F801918380831FC0FE01E75BFF4F8B
:102C000088EC90E091838083FE01E75BFF4F808139
:102C100091810197F1F7FE01E75BFF4F918380837C
:102C2000DE01A55BBF4FFE01E55BFF4F8081918117
:102C3000019711969C938E93FE01E55BFF4F808177
:102C400091810097D1F627C08E01055B1F4FFE01D1
:102C5000E35BFF4F60817181828193810E94490013
:102C6000DC01CB01F80191838083DE01A95BBF4FBA
:102C7000FE01E55BFF4F808191818D939C93FE0166
:102C8000E95BFF4F808191810197F1F7FE01E95BDC
:102C9000FF4F918380830E9443143FC3FE01EB5A90
:102CA000FF4F8081843208F0B4C0FE01EA5AFF4F22
:102CB00080818E3408F4ADC0FE01EA5AFF4F808156
:102CC0008B3508F0A6C0FE01E95AFF4F808187349A
:102CD00008F49FC0FE01E95AFF4F80818B3508F050
:102CE00098C0FE01E85AFF4F80818A3509F091C0F3
:102CF000FE01E75AFF4F8081882309F08AC00E94B5
:102D00007E1CFE01ED5BFF4F80E090E0AAE7B4E49B
:102D100080839183A283B3838E01015C1F4FFE01E8
:102D2000ED5BFF4F608171818281938120E030E013
:102D30004AEF54E40E941F02DC01CB01F8018083BA
:102D40009183A283B383FE01FF96608171818281AA
:102D5000938120E030E040E85FE30E94250488236F
:102D60002CF481E090E09EAF8DAF46C0FE01FF964F
:102D7000608171818281938120E03FEF4FE757E4CA
:102D80000E94C503181664F5FE01ED5BFF4F6081DC
:102D900071818281938120E030E040E251E40E9421
:102DA0001F02DC01CB01BC01CD010E944900DC0106
:102DB000CB019EAF8DAF0FC088EC90E09CAF8BAF86
:102DC0008BAD9CAD0197F1F79CAF8BAF8DAD9EADF8
:102DD00001979EAF8DAF8DAD9EAD009769F716C080
:102DE000FE01FF9660817181828193810E9449007A
:102DF000DC01CB019EAF8DAF8DAD9EAD9AAF89AF9B
:102E000089AD9AAD0197F1F79AAF89AF0E9443144B
:102E100084C2FE01EB5AFF4F8081893508F4AFC0B0
:102E2000FE01EB5AFF4F80818B3508F0A8C0FE01F0
:102E3000EA5AFF4F80818A3008F4A1C0FE01EA5AA5
:102E4000FF4F80818B3508F09AC0FE01E95AFF4F91
:102E500080818E3208F493C0FE01E95AFF4F8081D1
:102E6000863508F08CC0FE01E85AFF4F8081893515
:102E700008F485C0FE01E85AFF4F80818B3508F0C9
:102E80007EC0FE01E75AFF4F8081882309F077C09A
:102E90000E94941C80E090E0AAE7B4E48DAB9EAB66
:102EA000AFABB8AF6DA97EA98FA998AD20E030E097
:102EB0004AEF54E40E941F02DC01CB0189AB9AABBC
:102EC000ABABBCAB69A97AA98BA99CA920E030E087
:102ED00040E85FE30E94250488232CF481E090E021
:102EE00098AB8FA73FC069A97AA98BA99CA920E0BC
:102EF0003FEF4FE757E40E94C50318164CF56DA944
:102F00007EA98FA998AD20E030E040E251E40E9414
:102F10001F02DC01CB01BC01CD010E944900DC0194
:102F2000CB0198AB8FA70FC088EC90E09EA78DA730
:102F30008DA59EA50197F1F79EA78DA78FA598A9AE
:102F4000019798AB8FA78FA598A9009769F714C030
:102F500069A97AA98BA99CA90E944900DC01CB012F
:102F600098AB8FA78FA598A99CA78BA78BA59CA58D
:102F70000197F1F79CA78BA70E944314CEC1FE01D5
:102F8000EB5AFF4F8081843208F4A1C0FE01EB5A56
:102F9000FF4F8081883508F09AC0FE01EA5AFF4F42
:102FA00080818B3508F093C0FE01E95AFF4F808184
:102FB0008A3509F08CC0FE01E85AFF4F80818435C4
:102FC00008F485C0FE01E85AFF4F80818B3508F078
:102FD0007EC0FE01E75AFF4F8081882309F077C049
:102FE0000E94AA1C80E090E0AAE7B4E48FA398A70F
:102FF000A9A7BAA76FA178A589A59AA520E030E076
:103000004AEF54E40E941F02DC01CB018BA39CA376
:10301000ADA3BEA36BA17CA18DA19EA120E030E059
:1030200040E85FE30E94250488232CF481E090E0CF
:103030009AA389A33FC06BA17CA18DA19EA120E092
:103040003FEF4FE757E40E94C50318164CF56FA1F8
:1030500078A589A59AA520E030E040E251E40E94DD
:103060001F02DC01CB01BC01CD010E944900DC0143
:10307000CB019AA389A30FC088EC90E098A38F8F0F
:103080008F8D98A10197F1F798A38F8F89A19AA1AD
:1030900001979AA389A389A19AA1009769F714C0FF
:1030A0006BA17CA18DA19EA10E944900DC01CB01F6
:1030B0009AA389A389A19AA19E8F8D8F8D8D9E8DB4
:1030C0000197F1F79E8F8D8F0E94431426C1FE0158
:1030D000EB5AFF4F8081803508F4A8C0FE01EB5AFF
:1030E000FF4F80818B3508F0A1C0FE01EA5AFF4FE7
:1030F0008081803508F49AC0FE01EA5AFF4F808132
:103100008B3508F093C0FE01E95AFF4F80818E3263
:1031100008F08CC0FE01E85AFF4F8081893508F421
:1031200085C0FE01E85AFF4F80818B3508F07EC0D4
:10313000FE01E75AFF4F8081882309F077C00E9483
:10314000C01C80E090E0AAE7B4E4898F9A8FAB8F2F
:10315000BC8F698D7A8D8B8D9C8D20E030E04AEF9D
:1031600054E40E941F02DC01CB018D8B9E8BAF8B40
:10317000B88F6D897E898F89988D20E030E040E896
:103180005FE30E94250488232CF481E090E09C8B6F
:103190008B8B3FC06D897E898F89988D20E03FEFB2
:1031A0004FE757E40E94C50318164CF5698D7A8DD8
:1031B0008B8D9C8D20E030E040E251E40E941F02A4
:1031C000DC01CB01BC01CD010E944900DC01CB0137
:1031D0009C8B8B8B0FC088EC90E09A8B898B8989B4
:1031E0009A890197F1F79A8B898B8B899C89019732
:1031F0009C8B8B8B8B899C89009769F714C06D8998
:103200007E898F89988D0E944900DC01CB019C8BBF
:103210008B8B8B899C89988B8F878F859889019759
:10322000F1F7988B8F870E94431477C08DE20E943C
:10323000870E80E090E0AAE7B4E48B879C87AD8797
:10324000BE876B857C858D859E8520E030E04AEFCA
:1032500054E40E941F02DC01CB018F839887A98769
:10326000BA876F81788589859A8520E030E040E8CB
:103270005FE30E94250488232CF481E090E09E8384
:103280008D833FC06F81788589859A8520E03FEFE7
:103290004FE757E40E94C50318164CF56B857C85F3
:1032A0008D859E8520E030E040E251E40E941F02BF
:1032B000DC01CB01BC01CD010E944900DC01CB0146
:1032C0009E838D830FC088EC90E09C838B838B81E1
:1032D0009C810197F1F79C838B838D819E8101975F
:1032E0009E838D838D819E81009769F714C06F81C5
:1032F000788589859A850E944900DC01CB019E83EF
:103300008D838D819E819A83898389819A8101979A
:10331000F1F79A8389830E944314C75ADF4F0FB68F
:10332000F894DEBF0FBECDBFCF91DF911F910F91FB
:103330000895DF93CF9300D00F92CDB7DEB7898386
:103340006A834B8385E891E069814A812B810E94E1
:1033500094100F900F900F90CF91DF910895DF930D
:10336000CF9300D00F92CDB7DEB789836A834B83AA
:103370008DE891E069814A812B810E9494100F9021
:103380000F900F90CF91DF910895DF93CF9300D0EE
:103390000F92CDB7DEB789836A834B8385E991E0CD
:1033A00069814A812B810E9494100F900F900F9099
:1033B000CF91DF910895DF93CF9300D00F92CDB7D7
:1033C000DEB789836A834B838DE991E069814A8105
:1033D0002B810E9494100F900F900F90CF91DF914E
:1033E0000895DF93CF9300D00F92CDB7DEB78983D6
:1033F0006A834B8385EA91E069814A812B810E942F
:1034000094100F900F900F90CF91DF910895DF935C
:10341000CF9300D00F92CDB7DEB789836A834B83F9
:103420008DEA91E069814A812B810E9494100F906E
:103430000F900F90CF91DF910895DF93CF9300D03D
:103440000F92CDB7DEB789836A834B8385EB91E01A
:1034500069814A812B810E9494100F900F900F90E8
:10346000CF91DF910895DF93CF9300D00F92CDB726
:10347000DEB789836A834B838DEB91E069814A8152
:103480002B810E9494100F900F900F90CF91DF919D
:103490000895DF93CF9300D00F92CDB7DEB7898325
:1034A0006A834B8385EC91E069814A812B810E947C
:1034B00094100F900F900F90CF91DF910895DF93AC
:1034C000CF9300D00F92CDB7DEB789836A834B8349
:1034D0008DEC91E069814A812B810E9494100F90BC
:1034E0000F900F90CF91DF910895DF93CF9300D08D
:1034F0000F92CDB7DEB789836A834B8385ED91E068
:1035000069814A812B810E9494100F900F900F9037
:10351000CF91DF910895DF93CF9300D00F92CDB775
:10352000DEB789836A834B838DED91E069814A819F
:103530002B810E9494100F900F900F90CF91DF91EC
:103540000895DF93CF9300D00F92CDB7DEB7898374
:103550006A834B8385EE91E069814A812B810E94C9
:1035600094100F900F900F90CF91DF910895DF93FB
:10357000CF9300D00F92CDB7DEB789836A834B8398
:103580008DEE91E069814A812B810E9494100F9009
:103590000F900F90CF91DF910895DF93CF9300D0DC
:1035A0000F92CDB7DEB789836A834B8385EF91E0B5
:1035B00069814A812B810E9494100F900F900F9087
:1035C000CF91DF910895DF93CF9300D00F92CDB7C5
:1035D000DEB789836A834B838DEF91E069814A81ED
:1035E0002B810E9494100F900F900F90CF91DF913C
:1035F0000895DF93CF9300D00F92CDB7DEB78983C4
:103600006A834B8385E092E069814A812B810E9425
:1036100094100F900F900F90CF91DF910895DF934A
:10362000CF9300D00F92CDB7DEB789836A834B83E7
:103630008DE092E069814A812B810E9494100F9065
:103640000F900F90CF91DF910895DF93CF9300D02B
:103650000F92CDB7DEB789836A834B8385E192E011
:1036600069814A812B810E9494100F900F900F90D6
:10367000CF91DF910895DF93CF9300D00F92CDB714
:10368000DEB789836A834B838DE192E069814A8149
:103690002B810E9494100F900F900F90CF91DF918B
:1036A0000895DF93CF9300D00F92CDB7DEB7898313
:1036B0006A834B8385E292E069814A812B810E9473
:1036C00094100F900F900F90CF91DF910895DF939A
:1036D000CF9300D00F92CDB7DEB789836A834B8337
:1036E0008DE292E069814A812B810E9494100F90B3
:1036F0000F900F90CF91DF910895DF93CF9300D07B
:103700000F92CDB7DEB789836A834B838DE392E056
:1037100069814A812B810E9494100F900F900F9025
:10372000CF91DF910895DF93CF9300D00F92CDB763
:10373000DEB789836A834B8385E492E069814A819D
:103740002B810E9494100F900F900F90CF91DF91DA
:103750000895DF93CF9300D00F92CDB7DEB7898362
:103760006A834B8385E592E069814A812B810E94BF
:1037700094100F900F900F90CF91DF910895DF93E9
:10378000CF9300D00F92CDB7DEB789836A834B8386
:103790008DE592E069814A812B810E9494100F90FF
:1037A0000F900F90CF91DF910895DF93CF9300D0CA
:1037B0000F92CDB7DEB789836A834B8385E692E0AB
:1037C00069814A812B810E9494100F900F900F9075
:1037D000CF91DF910895DF93CF9300D00F92CDB7B3
:1037E000DEB789836A834B838DE692E069814A81E3
:1037F0002B810E9494100F900F900F90CF91DF912A
:103800000895DF93CF9300D00F92CDB7DEB78983B1
:103810006A834B8385E792E069814A812B810E940C
:1038200094100F900F900F90CF91DF910895DF9338
:10383000CF9300D00F92CDB7DEB789836A834B83D5
:103840008DE792E069814A812B810E9494100F904C
:103850000F900F90CF91DF910895DF93CF9300D019
:103860000F92CDB7DEB789836A834B8385E892E0F8
:1038700069814A812B810E9494100F900F900F90C4
:10388000CF91DF910895DF93CF93CDB7DEB780E07E
:1038900060E04FE00E94991981E060E04EE00E94F4
:1038A000A91B82E060E04DE00E94AF19CF91DF914B
:1038B0000895DF93CF93CDB7DEB780E060E04FE0AF
:1038C0000E94AF1981E060E04EE00E942D1C82E072
:1038D00060E04DE00E94F11983E060E04CE00E945E
:1038E000A91B84E060E04BE00E94EB1B85E060E0F8
:1038F0004AE00E94A91BCF91DF910895DF93CF93F7
:10390000CDB7DEB780E060E04FE00E94071A81E0AB
:1039100060E04EE00E94011C82E060E04DE00E9409
:10392000491ACF91DF910895DF93CF93CDB7DEB7DA
:1039300080E060E04FE00E94331A81E060E04EE0FA
:103940000E94AF1982E060E04DE00E947D1BCF91A4
:10395000DF910895DF93CF93CDB7DEB780E060E0CD
:103960004FE00E94991981E060E04EE00E941D1A2C
:1039700082E060E04DE00E94C519CF91DF9108958B
:10398000DF93CF93CDB7DEB780E060E04FE00E94D9
:10399000AF1981E060E04EE00E942D1C82E060E003
:1039A0004DE00E941D1A83E060E04CE00E94491A3D
:1039B000CF91DF910895DF93CF93CDB7DEB780E04D
:1039C00060E04FE00E94AF1981E060E04EE00E94AD
:1039D0007D1B82E060E04DE00E94F11983E060E031
:1039E0004CE00E942D1C84E060E04BE00E94F11945
:1039F00085E060E04AE00E94AF1986E060E049E0BF
:103A00000E94171CCF91DF910895DF93CF93CDB71C
:103A1000DEB780E060E04FE00E94331A81E060E0B2
:103A20004EE00E94931B82E060E04DE00E94EB1BA1
:103A300083E060E04CE00E94A11ACF91DF910895ED
:103A4000DF93CF93CDB7DEB764970FB6F894DEBFA0
:103A50000FBECDBF0E94361DCE01019664E10E94CB
:103A60000708CE0101960E94451DF6CFDF93CF9344
:103A7000CDB7DEB70E94660D83E390E00E94A507F4
:103A80000E94D00DCF91DF9108950F931F93DF9384
:103A9000CF93CDB7DEB7C854D0400FB6F894DEBF91
:103AA0000FBECDBFFE01E95BFF4F91838083FE0116
:103AB000E95BFF4F8081918120E630E0B9010E94EF
:103AC0009020009709F08AC00E9443140E94431C72
:103AD000FE01ED5BFF4F80E090E0AAE7B4E4808355
:103AE0009183A283B3838E01015C1F4FFE01ED5BC6
:103AF000FF4F608171818281938120E030E04AEF45
:103B000054E40E941F02DC01CB01F8018083918301
:103B1000A283B383FE01FF966081718182819381CC
:103B200020E030E040E85FE30E94250488232CF485
:103B300081E090E09EAF8DAF46C0FE01FF966081B0
:103B400071818281938120E03FEF4FE757E40E942B
:103B5000C503181664F5FE01ED5BFF4F60817181AE
:103B60008281938120E030E040E251E40E941F0214
:103B7000DC01CB01BC01CD010E944900DC01CB017D
:103B80009EAF8DAF0FC088EC90E09CAF8BAF8BAD3C
:103B90009CAD0197F1F79CAF8BAF8DAD9EAD0197BA
:103BA0009EAF8DAF8DAD9EAD009769F72DC2FE0122
:103BB000FF9660817181828193810E944900DC01BE
:103BC000CB019EAF8DAF8DAD9EAD9AAF89AF89AD64
:103BD0009AAD0197F1F79AAF89AF16C2FE01E95B82
:103BE000FF4F8081918124E630E0B9010E9490204E
:103BF000009709F077C00E9443140E94AA1C80E03D
:103C000090E0AAE7B4E48DAB9EABAFABB8AF6DA9C3
:103C10007EA98FA998AD20E030E04AEF54E40E94DD
:103C20001F02DC01CB0189AB9AABABABBCAB69A982
:103C30007AA98BA99CA920E030E040E85FE30E94CC
:103C4000250488232CF481E090E098AB8FA73FC037
:103C500069A97AA98BA99CA920E03FEF4FE757E417
:103C60000E94C50318164CF56DA97EA98FA998ADC1
:103C700020E030E040E251E40E941F02DC01CB0171
:103C8000BC01CD010E944900DC01CB0198AB8FA79C
:103C90000FC088EC90E09EA78DA78DA59EA50197EB
:103CA000F1F79EA78DA78FA598A9019798AB8FA72D
:103CB0008FA598A9009769F7A7C169A97AA98BA9C7
:103CC0009CA90E944900DC01CB0198AB8FA78FA56E
:103CD00098A99CA78BA78BA59CA50197F1F79CA7FA
:103CE0008BA792C1FE01E95BFF4F8081918128E69D
:103CF00030E0B9010E949020009709F077C00E943F
:103D000043140E947E1C80E090E0AAE7B4E48FA3F5
:103D100098A7A9A7BAA76FA178A589A59AA520E019
:103D200030E04AEF54E40E941F02DC01CB018BA378
:103D30009CA3ADA3BEA36BA17CA18DA19EA120E0FD
:103D400030E040E85FE30E94250488232CF481E002
:103D500090E09AA389A33FC06BA17CA18DA19EA1F5
:103D600020E03FEF4FE757E40E94C50318164CF5DB
:103D70006FA178A589A59AA520E030E040E251E442
:103D80000E941F02DC01CB01BC01CD010E94490051
:103D9000DC01CB019AA389A30FC088EC90E098A323
:103DA0008F8F8F8D98A10197F1F798A38F8F89A19D
:103DB0009AA101979AA389A389A19AA1009769F76B
:103DC00023C16BA17CA18DA19EA10E944900DC01B1
:103DD000CB019AA389A389A19AA19E8F8D8F8D8DE6
:103DE0009E8D0197F1F79E8F8D8F0EC1FE01E95BCD
:103DF000FF4F808191812CE630E0B9010E94902034
:103E0000009709F077C00E9443140E94941C80E040
:103E100090E0AAE7B4E4898F9A8FAB8FBC8F698D4D
:103E20007A8D8B8D9C8D20E030E04AEF54E40E9427
:103E30001F02DC01CB018D8B9E8BAF8BB88F6D8900
:103E40007E898F89988D20E030E040E85FE30E9412
:103E5000250488232CF481E090E09C8B8B8B3FC061
:103E60006D897E898F89988D20E03FEF4FE757E479
:103E70000E94C50318164CF5698D7A8D8B8D9C8D2B
:103E800020E030E040E251E40E941F02DC01CB015F
:103E9000BC01CD010E944900DC01CB019C8B8B8BC6
:103EA0000FC088EC90E09A8B898B89899A89019759
:103EB000F1F79A8B898B8B899C8901979C8B8B8BD3
:103EC0008B899C89009769F79FC06D897E898F894E
:103ED000988D0E944900DC01CB019C8B8B8B8B89D8
:103EE0009C89988B8F878F8598890197F1F7988B9C
:103EF0008F878AC0FE01E95BFF4F8081918120E7B7
:103F000030E0B9010E949020009709F077C00E942C
:103F100043140E94C01C80E090E0AAE7B4E48B87C1
:103F20009C87AD87BE876B857C858D859E8520E0CF
:103F300030E04AEF54E40E941F02DC01CB018F8382
:103F40009887A987BA876F81788589859A8520E0C7
:103F500030E040E85FE30E94250488232CF481E0F0
:103F600090E09E838D833FC06F81788589859A8597
:103F700020E03FEF4FE757E40E94C50318164CF5C9
:103F80006B857C858D859E8520E030E040E251E4A4
:103F90000E941F02DC01CB01BC01CD010E9449003F
:103FA000DC01CB019E838D830FC088EC90E09C8365
:103FB0008B838B819C810197F1F79C838B838D810F
:103FC0009E8101979E838D838D819E81009769F7E5
:103FD0001BC06F81788589859A850E944900DC0124
:103FE000CB019E838D838D819E819A838983898174
:103FF0009A810197F1F79A83898306C00E9443143E
:1040000086E790E00E94E612C85BDF4F0FB6F89497
:10401000DEBF0FBECDBFCF91DF911F910F910895ED
:10402000991B79E004C0991F961708F0961B881F0A
:104030007A95C9F78095089597FB092E05260ED02D
:1040400057FD04D014D00AD0001C38F45095409588
:10405000309521953F4F4F4F5F4F0895F6F790955C
:104060008095709561957F4F8F4F9F4F0895A1E286
:104070001A2EAA1BBB1BFD010DC0AA1FBB1FEE1FE2
:10408000FF1FA217B307E407F50720F0A21BB30B2D
:10409000E40BF50B661F771F881F991F1A9469F7A9
:1040A00060957095809590959B01AC01BD01CF0105
:1040B00008952F923F924F925F926F927F928F92CC
:1040C0009F92AF92BF92CF92DF92EF92FF920F93A7
:1040D0001F93CF93DF93CDB7DEB7CA1BDB0B0FB6B1
:1040E000F894DEBF0FBECDBF09942A88398848886E
:1040F0005F846E847D848C849B84AA84B984C88404
:10410000DF80EE80FD800C811B81AA81B981CE0FFA
:10411000D11D0FB6F894DEBF0FBECDBFED010895DF
:10412000FB01DC018D91019080190110D9F3990BED
:064130000895F894FFCF92
:10413600326E6100413762004769640038616C0085
:10414600416C323764006465746563740000000076
:10415600000000000000010202030303030404043C
:1041660004040404040505050505050505050505FE
:1041760005050505050606060606060606060606DE
:1041860006060606060606060606060606060606C9
:1041960006060606060707070707070707070707AE
:1041A6000707070707070707070707070707070799
:1041B6000707070707070707070707070707070789
:1041C6000707070707070707070707070707070779
:1041D600070707070708080808080808080808085E
:1041E6000808080808080808080808080808080849
:1041F6000808080808080808080808080808080839
:104206000808080808080808080808080808080828
:104216000808080808080808080808080808080818
:104226000808080808080808080808080808080808
:1042360008080808080808080808080808080808F8
:1042460008080808080808080808080808080808E8
:10425600080808080806040E000404040401010105
:10426600010101000000000011111F0400000006FA
:1042760011111F000000000E11111F0000000007A1
:10428600011F02000000000007011F0000000207D6
:10429600011F0000000000070101070000020007DF
:1042A60001010700000000010102041800010001DD
:1042B600010204180000000015151F0000000E0082
:1042C60015151F000000001715171C000002001727
:1042D60015171C00000808080F091F0000080A0827
:1042E6000F091F0000000704070404070002070463
:1042F600070404070000020017151F000000030052
:1043060017151F0000001F0804021F00000101010D
:1043160005050700000007051F1010000000001526
:1043260011111F000000000005011F000000000F12
:1043360005051F00000007050701021C0000001309
:1043460012131F0000000009090F060000000000FC
:0E43560006040E000000110905031F00000000
:00000001FF
